{
  "contractName": "Ballot",
  "abi": [
    {
      "constant": true,
      "inputs": [
        {
          "name": "",
          "type": "int256"
        }
      ],
      "name": "proposals",
      "outputs": [
        {
          "name": "proposalID",
          "type": "int256"
        },
        {
          "name": "numPos",
          "type": "int256"
        },
        {
          "name": "numNeg",
          "type": "int256"
        },
        {
          "name": "title",
          "type": "string"
        },
        {
          "name": "content",
          "type": "string"
        }
      ],
      "payable": false,
      "stateMutability": "view",
      "type": "function",
      "signature": "0x130fb26d"
    },
    {
      "constant": true,
      "inputs": [
        {
          "name": "",
          "type": "address"
        },
        {
          "name": "",
          "type": "int256"
        }
      ],
      "name": "voters",
      "outputs": [
        {
          "name": "",
          "type": "int256"
        }
      ],
      "payable": false,
      "stateMutability": "view",
      "type": "function",
      "signature": "0x3ddca616"
    },
    {
      "constant": true,
      "inputs": [
        {
          "name": "",
          "type": "address"
        }
      ],
      "name": "voterAdded",
      "outputs": [
        {
          "name": "",
          "type": "bool"
        }
      ],
      "payable": false,
      "stateMutability": "view",
      "type": "function",
      "signature": "0xb9e5f904"
    },
    {
      "constant": true,
      "inputs": [],
      "name": "proposalCount",
      "outputs": [
        {
          "name": "",
          "type": "int256"
        }
      ],
      "payable": false,
      "stateMutability": "view",
      "type": "function",
      "signature": "0xda35c664"
    },
    {
      "inputs": [],
      "payable": false,
      "stateMutability": "nonpayable",
      "type": "constructor",
      "signature": "constructor"
    },
    {
      "anonymous": false,
      "inputs": [
        {
          "indexed": false,
          "name": "proposalID",
          "type": "int256"
        },
        {
          "indexed": false,
          "name": "numPos",
          "type": "int256"
        },
        {
          "indexed": false,
          "name": "numNeg",
          "type": "int256"
        },
        {
          "indexed": false,
          "name": "title",
          "type": "string"
        },
        {
          "indexed": false,
          "name": "content",
          "type": "string"
        }
      ],
      "name": "ProposalCreated",
      "type": "event",
      "signature": "0x3d17a3df8ef540abed02086b5a0c6b12abf577e5c01caf311a22e9481614eab9"
    },
    {
      "anonymous": false,
      "inputs": [
        {
          "indexed": false,
          "name": "x",
          "type": "address"
        }
      ],
      "name": "VoterAdded",
      "type": "event",
      "signature": "0xa636f4a11e2d3ba7f89d042ecb0a6b886716e98cd49d8fd876ee0f73bced42b8"
    },
    {
      "anonymous": false,
      "inputs": [
        {
          "indexed": false,
          "name": "numPos",
          "type": "int256"
        },
        {
          "indexed": false,
          "name": "numNeg",
          "type": "int256"
        }
      ],
      "name": "change",
      "type": "event",
      "signature": "0xf6bc809835d7ac3b904bbc6560ddceeeb906355c080f278a8b7bf055eceaacc3"
    },
    {
      "constant": false,
      "inputs": [
        {
          "name": "add",
          "type": "address"
        }
      ],
      "name": "addVoter",
      "outputs": [],
      "payable": false,
      "stateMutability": "nonpayable",
      "type": "function",
      "signature": "0xf4ab9adf"
    },
    {
      "constant": false,
      "inputs": [
        {
          "name": "_title",
          "type": "string"
        },
        {
          "name": "_content",
          "type": "string"
        }
      ],
      "name": "createProposal",
      "outputs": [],
      "payable": false,
      "stateMutability": "nonpayable",
      "type": "function",
      "signature": "0x65e481e2"
    },
    {
      "constant": false,
      "inputs": [
        {
          "name": "proposalID",
          "type": "int256"
        },
        {
          "name": "voterAddress",
          "type": "address"
        }
      ],
      "name": "proposalUpvoted",
      "outputs": [],
      "payable": false,
      "stateMutability": "nonpayable",
      "type": "function",
      "signature": "0xc87a58a6"
    },
    {
      "constant": false,
      "inputs": [
        {
          "name": "proposalID",
          "type": "int256"
        },
        {
          "name": "voterAddress",
          "type": "address"
        }
      ],
      "name": "proposalDownvoted",
      "outputs": [],
      "payable": false,
      "stateMutability": "nonpayable",
      "type": "function",
      "signature": "0xb289abb3"
    }
  ],
  "bytecode": "0x6080604052600080553480156200001557600080fd5b50620000a1606060405190810160405280602281526020017f53686f756c64205341532072656e6f76617465207468656972206c696272617281526020017f793f00000000000000000000000000000000000000000000000000000000000081525060e06040519081016040528060af8152602001620012b560af91396401000000006200015d810204565b6200012f606060405190810160405280602281526020017f53686f756c64206174686c65746963732062652064652d656d7068617369736581526020017f643f000000000000000000000000000000000000000000000000000000000000815250610420604051908101604052806103f0815260200162000ec56103f091396401000000006200015d810204565b62000157730d3fe60dddcad85b534ea8b291cd7bc04bc5f3ef64010000000062000312810204565b6200044e565b6000805460019081018083556040805160a0810182528281526020808201868152828401878152606084018a8152608085018a905295885286835293909620825181559551948601949094559051600285015590518051919392620001cb92600385019290910190620003a9565b5060808201518051620001e9916004840191602090910190620003a9565b509050507f3d17a3df8ef540abed02086b5a0c6b12abf577e5c01caf311a22e9481614eab96000546000808585604051808681526020018581526020018481526020018060200180602001838103835285818151815260200191508051906020019080838360005b838110156200026b57818101518382015260200162000251565b50505050905090810190601f168015620002995780820380516001836020036101000a031916815260200191505b50838103825284518152845160209182019186019080838360005b83811015620002ce578181015183820152602001620002b4565b50505050905090810190601f168015620002fc5780820380516001836020036101000a031916815260200191505b5097505050505050505060405180910390a15050565b600160a060020a038116600081815260026020908152604091829020805460ff19166001179055815192835290517fa636f4a11e2d3ba7f89d042ecb0a6b886716e98cd49d8fd876ee0f73bced42b89281900390910190a160005b600054811215620003a557600160a060020a03821660009081526003602090815260408083208484529091528120556001016200036d565b5050565b828054600181600116156101000203166002900490600052602060002090601f016020900481019282601f10620003ec57805160ff19168380011785556200041c565b828001600101855582156200041c579182015b828111156200041c578251825591602001919060010190620003ff565b506200042a9291506200042e565b5090565b6200044b91905b808211156200042a576000815560010162000435565b90565b610a67806200045e6000396000f3fe60806040526004361061008d5763ffffffff7c0100000000000000000000000000000000000000000000000000000000600035041663130fb26d81146100925780633ddca616146101af57806365e481e2146101fa578063b289abb314610336578063b9e5f9041461036f578063c87a58a6146103b6578063da35c664146103ef578063f4ab9adf14610404575b600080fd5b34801561009e57600080fd5b506100bc600480360360208110156100b557600080fd5b5035610437565b604051808681526020018581526020018481526020018060200180602001838103835285818151815260200191508051906020019080838360005b8381101561010f5781810151838201526020016100f7565b50505050905090810190601f16801561013c5780820380516001836020036101000a031916815260200191505b50838103825284518152845160209182019186019080838360005b8381101561016f578181015183820152602001610157565b50505050905090810190601f16801561019c5780820380516001836020036101000a031916815260200191505b5097505050505050505060405180910390f35b3480156101bb57600080fd5b506101e8600480360360408110156101d257600080fd5b50600160a060020a038135169060200135610575565b60408051918252519081900360200190f35b34801561020657600080fd5b506103346004803603604081101561021d57600080fd5b81019060208101813564010000000081111561023857600080fd5b82018360208201111561024a57600080fd5b8035906020019184600183028401116401000000008311171561026c57600080fd5b91908080601f01602080910402602001604051908101604052809392919081815260200183838082843760009201919091525092959493602081019350359150506401000000008111156102bf57600080fd5b8201836020820111156102d157600080fd5b803590602001918460018302840111640100000000831117156102f357600080fd5b91908080601f016020809104026020016040519081016040528093929190818152602001838380828437600092019190915250929550610592945050505050565b005b34801561034257600080fd5b506103346004803603604081101561035957600080fd5b5080359060200135600160a060020a031661073d565b34801561037b57600080fd5b506103a26004803603602081101561039257600080fd5b5035600160a060020a0316610879565b604080519115158252519081900360200190f35b3480156103c257600080fd5b50610334600480360360408110156103d957600080fd5b5080359060200135600160a060020a031661088e565b3480156103fb57600080fd5b506101e8610905565b34801561041057600080fd5b506103346004803603602081101561042757600080fd5b5035600160a060020a031661090b565b60016020818152600092835260409283902080548184015460028084015460038501805489519881161561010002600019011692909204601f81018790048702880187019098528787529296919592949091908301828280156104db5780601f106104b0576101008083540402835291602001916104db565b820191906000526020600020905b8154815290600101906020018083116104be57829003601f168201915b5050505060048301805460408051602060026001851615610100026000190190941693909304601f810184900484028201840190925281815294959493509083018282801561056b5780601f106105405761010080835404028352916020019161056b565b820191906000526020600020905b81548152906001019060200180831161054e57829003601f168201915b5050505050905085565b600360209081526000928352604080842090915290825290205481565b6000805460019081018083556040805160a0810182528281526020808201868152828401878152606084018a8152608085018a9052958852868352939096208251815595519486019490945590516002850155905180519193926105fe926003850192909101906109a0565b506080820151805161061a9160048401916020909101906109a0565b509050507f3d17a3df8ef540abed02086b5a0c6b12abf577e5c01caf311a22e9481614eab96000546000808585604051808681526020018581526020018481526020018060200180602001838103835285818151815260200191508051906020019080838360005b8381101561069a578181015183820152602001610682565b50505050905090810190601f1680156106c75780820380516001836020036101000a031916815260200191505b50838103825284518152845160209182019186019080838360005b838110156106fa5781810151838201526020016106e2565b50505050905090810190601f1680156107275780820380516001836020036101000a031916815260200191505b5097505050505050505060405180910390a15050565b600160a060020a038116600090815260036020908152604080832085845290915290205460018114156107b857600160a060020a038216600090815260036020908152604080832086845282528083206000199081905560019283905292208082018054909301909255600290910180549091019055610822565b8015156107df57600083815260016020819052604090912060020180549091019055610822565b80600019141561082257600160a060020a038216600090815260036020908152604080832086845282528083208390556001909152902060020180546000190190555b6000838152600160208181526040928390209182015460029092015483519283529082015281517ff6bc809835d7ac3b904bbc6560ddceeeb906355c080f278a8b7bf055eceaacc3929181900390910190a1505050565b60026020526000908152604090205460ff1681565b600160a060020a038116600090815260036020908152604080832085845282528083205460018084529382902093840154600290940154825194855292840192909252805191927ff6bc809835d7ac3b904bbc6560ddceeeb906355c080f278a8b7bf055eceaacc3929081900390910190a1505050565b60005481565b600160a060020a038116600081815260026020908152604091829020805460ff19166001179055815192835290517fa636f4a11e2d3ba7f89d042ecb0a6b886716e98cd49d8fd876ee0f73bced42b89281900390910190a160005b60005481121561099c57600160a060020a0382166000908152600360209081526040808320848452909152812055600101610966565b5050565b828054600181600116156101000203166002900490600052602060002090601f016020900481019282601f106109e157805160ff1916838001178555610a0e565b82800160010185558215610a0e579182015b82811115610a0e5782518255916020019190600101906109f3565b50610a1a929150610a1e565b5090565b610a3891905b80821115610a1a5760008155600101610a24565b9056fea165627a7a723058204ad5a63d856eeec8e993600873756f8cbf99e627e152314d1c503ed678f0a4ec00294174206f7572207363686f6f6c2c2077652061726520636f6e7374616e746c7920746f6c642061626f757420746865206163636f6d706c6973686d656e7473206f66204941534153206174686c657465732e2057652068617665207065702072616c6c6965732c20616e64204941534153206174686c657465732061726520676976656e2072656420626167732e20496e206f6e65206f662074686520686f75736520617373656d626c6965732c20616c6c206174686c6574657320776572652061736b656420746f207374616e642075702c20666f7220746865697220646966666572656e742073706f7274732e20496d6167696e6520776861742069662066656c74206c696b6520666f722074686f73652077686f206469646ee28099742074616b65207061727420696e206174686c65746963732c207768656e2074686579207765726520746865206f6e6c792070656f706c65207374616e64696e672075702e205468697320776f756c642062652066696e6520696620746865792077657265207265636f676e697a65642c20627574207175697465206672616e6b6c792c2074686579206172656ee28099742e2057652061726520636f6e7374616e746c792061736b656420746f20e2809c537570706f7274206f7572204561676c6573e2809d206174206174686c65746963206576656e74732c2062757420666f722043756c436f6e2c206e6f626f6479207265616c6c792063617265732e2054686973206973737565206973206675727468657220776f7273656e6564207769746820746865205363686f6c617273204c756e6368656f6e2e205468652047504120726571756972656d656e7420697320332e372c207768696368206973206c6f7720656e6f75676820666f722061206772656174206e756d626572206f662070656f706c6520746f207175616c69667920666f722069742e2042757420666f722074686f73652077686f206172656ee280997420617320676f6f642061636164656d6963616c6c792c207468657920776f756c64206665656c2065787472656d656c7920626164207768656e2068616c6620746865207363686f6f6c20676f657320746f207468652067796d206f6e65206c756e63682e20467572746865726d6f72652c2074686f73652077686f2068617665207665727920676f6f6420475041732c206c696b6520686176696e672061626f7665206120342e312c2063616ee2809974206665656c207265636f676e697a65642062656361757365207468657920617265206265696e67207265636f676e697a656420776974682068616c6620746865207363686f6f6c2c20e2809c64696c7574696e67e2809d207468656972207265636f676e6974696f6e2e48657265206973206120726561736f6e20666f7220746869732070726f706f73616c2e48657265206973206120726561736f6e20666f7220746869732070726f706f73616c2e48657265206973206120726561736f6e20666f7220746869732070726f706f73616c2e48657265206973206120726561736f6e20666f7220746869732070726f706f73616c2e48657265206973206120726561736f6e20666f7220746869732070726f706f73616c2e",
  "source": "pragma solidity ^0.5.0;\r\n\r\ncontract Ballot{\r\n    int public proposalCount = 0;\r\n    struct Voter {\r\n        address x;\r\n    }\r\n    struct Proposal{\r\n        int proposalID; \r\n        int numPos;\r\n        int numNeg;\r\n        string title;\r\n        string content;\r\n    }\r\n    mapping(int => Proposal) public proposals;\r\n    mapping(address => bool) public voterAdded;\r\n    mapping(address => mapping(int => int)) public voters; //address to voter\r\n\r\n    event ProposalCreated(\r\n        int proposalID,\r\n        int numPos,\r\n        int numNeg,\r\n        string title,\r\n        string content\r\n    );\r\n\r\n    event VoterAdded(\r\n        address x\r\n    );\r\n\r\n    event change(\r\n        int numPos,\r\n        int numNeg\r\n    );\r\n/*\r\n    event ItemUpvoted(\t\r\n        int proposalID,\t\r\n        int currentVote\r\n    );\r\n\r\n    event ItemDownvoted(\t\r\n        int proposalID,\t\r\n        int currentVote\r\n    );\r\n*/\r\n\r\n    constructor() public{\r\n        createProposal(\"Should SAS renovate their library?\", \"Here is a reason for this proposal.Here is a reason for this proposal.Here is a reason for this proposal.Here is a reason for this proposal.Here is a reason for this proposal.\");\r\n        createProposal(\"Should athletics be de-emphasised?\", \"At our school, we are constantly told about the accomplishments of IASAS athletes. We have pep rallies, and IASAS athletes are given red bags. In one of the house assemblies, all athletes were asked to stand up, for their different sports. Imagine what if felt like for those who didn’t take part in athletics, when they were the only people standing up. This would be fine if they were recognized, but quite frankly, they aren’t. We are constantly asked to “Support our Eagles” at athletic events, but for CulCon, nobody really cares. This issue is further worsened with the Scholars Luncheon. The GPA requirement is 3.7, which is low enough for a great number of people to qualify for it. But for those who aren’t as good academically, they would feel extremely bad when half the school goes to the gym one lunch. Furthermore, those who have very good GPAs, like having above a 4.1, can’t feel recognized because they are being recognized with half the school, “diluting” their recognition.\");\r\n        addVoter(0x0D3FE60dDDcaD85B534EA8b291cd7bc04bc5f3ef);\r\n    }\r\n\r\n    function addVoter(address add) public{\r\n        voterAdded[add] = true;\r\n        emit VoterAdded(add);\r\n        for(int i = 0; i < proposalCount; i++){\r\n            voters[add][i] = 0;\r\n        }\r\n    }\r\n\r\n    function createProposal(string memory _title, string memory _content) public{\r\n        proposalCount++;\r\n        proposals[proposalCount] = Proposal(proposalCount, 0,0,_title, _content);\r\n        emit ProposalCreated(proposalCount,0,0,_title,_content);\r\n    }\r\n\r\n    function proposalUpvoted(int proposalID, address voterAddress) public{\r\n        int currentVote = voters[voterAddress][proposalID];\r\n      /*  if(currentVote == 1){\r\n            voters[voterAddress][proposalID] = 0;\r\n            proposals[proposalID].numPos -= 1;\r\n        }\r\n        else if(currentVote == 0){\r\n            voters[voterAddress][proposalID] = 1;\r\n            proposals[proposalID].numPos += 1;\r\n        }else if(currentVote == -1){\r\n            voters[voterAddress][proposalID] = 1;\r\n            proposals[proposalID].numPos++;\r\n            proposals[proposalID].numNeg--;\r\n        }*/\r\n        emit change(proposals[proposalID].numPos,proposals[proposalID].numNeg);\r\n    }\r\n\r\n    function proposalDownvoted(int proposalID, address voterAddress) public{\r\n        int currentVote = voters[voterAddress][proposalID];\r\n        if(currentVote == 1){\r\n            voters[voterAddress][proposalID] = -1;\r\n            proposals[proposalID].numPos--;\r\n            proposals[proposalID].numNeg++;\r\n        }\r\n        else if(currentVote == 0){\r\n            //voters[voterAddress][proposalID] = -1;\r\n            proposals[proposalID].numNeg++;\r\n        }else if(currentVote == -1){\r\n            voters[voterAddress][proposalID] = 0;\r\n            proposals[proposalID].numNeg--;\r\n        }\r\n        emit change(proposals[proposalID].numPos,proposals[proposalID].numNeg);\r\n    }\r\n\r\n}",
  "sourcePath": "C:/Users/polav/OneDrive/Desktop/Projects/blockchain/Catalyst/todo/contracts/Ballot.sol",
  "compiler": {
    "name": "solc",
    "version": "0.5.0+commit.1d4f565a.Emscripten.clang"
  },
  "schemaVersion": "3.0.1",
  "updatedAt": "2022-05-03T14:52:53.692Z",
  "devdoc": {
    "methods": {}
  },
  "userdoc": {
    "methods": {}
  }
}