{
  "contractName": "TodoList",
  "abi": [
    {
      "constant": true,
      "inputs": [],
      "name": "itemCount",
      "outputs": [
        {
          "name": "",
          "type": "int256"
        }
      ],
      "payable": false,
      "stateMutability": "view",
      "type": "function",
      "signature": "0x6bfb0d01"
    },
    {
      "constant": true,
      "inputs": [
        {
          "name": "",
          "type": "int256"
        }
      ],
      "name": "items",
      "outputs": [
        {
          "name": "id",
          "type": "int256"
        },
        {
          "name": "numPos",
          "type": "int256"
        },
        {
          "name": "numNeg",
          "type": "int256"
        },
        {
          "name": "title",
          "type": "string"
        },
        {
          "name": "content",
          "type": "string"
        },
        {
          "name": "currentVote",
          "type": "int256"
        }
      ],
      "payable": false,
      "stateMutability": "view",
      "type": "function",
      "signature": "0xb375f6ee"
    },
    {
      "inputs": [],
      "payable": false,
      "stateMutability": "nonpayable",
      "type": "constructor",
      "signature": "constructor"
    },
    {
      "anonymous": false,
      "inputs": [
        {
          "indexed": false,
          "name": "id",
          "type": "int256"
        },
        {
          "indexed": false,
          "name": "numPos",
          "type": "int256"
        },
        {
          "indexed": false,
          "name": "numNeg",
          "type": "int256"
        },
        {
          "indexed": false,
          "name": "title",
          "type": "string"
        },
        {
          "indexed": false,
          "name": "content",
          "type": "string"
        },
        {
          "indexed": false,
          "name": "currentVote",
          "type": "int256"
        }
      ],
      "name": "ItemCreated",
      "type": "event",
      "signature": "0x840f52d4fb3e36963ceb39ebf7539b15567117cf8a64f636d7678e0794e4e0f8"
    },
    {
      "anonymous": false,
      "inputs": [
        {
          "indexed": false,
          "name": "numPos",
          "type": "int256"
        },
        {
          "indexed": false,
          "name": "numNeg",
          "type": "int256"
        }
      ],
      "name": "change",
      "type": "event",
      "signature": "0xf6bc809835d7ac3b904bbc6560ddceeeb906355c080f278a8b7bf055eceaacc3"
    },
    {
      "constant": false,
      "inputs": [
        {
          "name": "_title",
          "type": "string"
        },
        {
          "name": "_content",
          "type": "string"
        }
      ],
      "name": "createItem",
      "outputs": [],
      "payable": false,
      "stateMutability": "nonpayable",
      "type": "function",
      "signature": "0xe03fd74c"
    },
    {
      "constant": false,
      "inputs": [
        {
          "name": "id",
          "type": "int256"
        }
      ],
      "name": "itemUpvoted",
      "outputs": [],
      "payable": false,
      "stateMutability": "nonpayable",
      "type": "function",
      "signature": "0x3f70e683"
    },
    {
      "constant": false,
      "inputs": [
        {
          "name": "id",
          "type": "int256"
        }
      ],
      "name": "itemDownvoted",
      "outputs": [],
      "payable": false,
      "stateMutability": "nonpayable",
      "type": "function",
      "signature": "0x493b9898"
    }
  ],
  "bytecode": "0x6080604052600080553480156200001557600080fd5b50620000a1606060405190810160405280602281526020017f53686f756c64205341532072656e6f76617465207468656972206c696272617281526020017f793f00000000000000000000000000000000000000000000000000000000000081525060c060405190810160405280609b8152602001620010db609b913964010000000062000135810204565b6200012f606060405190810160405280602281526020017f53686f756c64206174686c65746963732062652064652d656d7068617369736581526020017f643f000000000000000000000000000000000000000000000000000000000000815250610420604051908101604052806103f0815260200162000ceb6103f0913964010000000062000135810204565b620003a9565b6000805460019081018083556040805160c0810182528281526020808201868152828401878152606084018a8152608085018a905260a0850189905295885286835293909620825181559551948601949094559051600285015590518051919392620001aa9260038501929091019062000304565b5060808201518051620001c891600484019160209091019062000304565b5060a082015181600501559050507f840f52d4fb3e36963ceb39ebf7539b15567117cf8a64f636d7678e0794e4e0f860005460008085856000604051808781526020018681526020018581526020018060200180602001848152602001838103835286818151815260200191508051906020019080838360005b838110156200025c57818101518382015260200162000242565b50505050905090810190601f1680156200028a5780820380516001836020036101000a031916815260200191505b50838103825285518152855160209182019187019080838360005b83811015620002bf578181015183820152602001620002a5565b50505050905090810190601f168015620002ed5780820380516001836020036101000a031916815260200191505b509850505050505050505060405180910390a15050565b828054600181600116156101000203166002900490600052602060002090601f016020900481019282601f106200034757805160ff191683800117855562000377565b8280016001018555821562000377579182015b82811115620003775782518255916020019190600101906200035a565b506200038592915062000389565b5090565b620003a691905b8082111562000385576000815560010162000390565b90565b61093280620003b96000396000f3fe60806040526004361061006c5763ffffffff7c01000000000000000000000000000000000000000000000000000000006000350416633f70e6838114610071578063493b98981461009d5780636bfb0d01146100c7578063b375f6ee146100ee578063e03fd74c14610212575b600080fd5b34801561007d57600080fd5b5061009b6004803603602081101561009457600080fd5b503561034c565b005b3480156100a957600080fd5b5061009b600480360360208110156100c057600080fd5b5035610444565b3480156100d357600080fd5b506100dc61055c565b60408051918252519081900360200190f35b3480156100fa57600080fd5b506101186004803603602081101561011157600080fd5b5035610562565b604051808781526020018681526020018581526020018060200180602001848152602001838103835286818151815260200191508051906020019080838360005b83811015610171578181015183820152602001610159565b50505050905090810190601f16801561019e5780820380516001836020036101000a031916815260200191505b50838103825285518152855160209182019187019080838360005b838110156101d15781810151838201526020016101b9565b50505050905090810190601f1680156101fe5780820380516001836020036101000a031916815260200191505b509850505050505050505060405180910390f35b34801561021e57600080fd5b5061009b6004803603604081101561023557600080fd5b81019060208101813564010000000081111561025057600080fd5b82018360208201111561026257600080fd5b8035906020019184600183028401116401000000008311171561028457600080fd5b91908080601f01602080910402602001604051908101604052809392919081815260200183838082843760009201919091525092959493602081019350359150506401000000008111156102d757600080fd5b8201836020820111156102e957600080fd5b8035906020019184600183028401116401000000008311171561030b57600080fd5b91908080601f0160208091040260200160405190810160405280939291908181526020018383808284376000920191909152509295506106a6945050505050565b600081815260016020819052604090912060050154908114156103885760008281526001602081905260409091200180546000190190556103ee565b8015156103b5576000828152600160208190526040909120600581018290558101805490910190556103ee565b8060001914156103ee57600082815260016020819052604090912060058101829055808201805490920190915560020180546000190190555b6000828152600160208181526040928390209182015460029092015483519283529082015281517ff6bc809835d7ac3b904bbc6560ddceeeb906355c080f278a8b7bf055eceaacc3929181900390910190a15050565b600081815260016020819052604090912060050154141561048a576000818152600160208190526040909120808201805460001901905560020180549091019055610507565b60008181526001602052604090206005015415156104ca576000818152600160208190526040909120600019600582015560020180549091019055610507565b6000818152600160205260409020600501546000191415610507576000818152600160205260408120600581019190915560020180546000190190555b6000818152600160208181526040928390209182015460029092015483519283529082015281517ff6bc809835d7ac3b904bbc6560ddceeeb906355c080f278a8b7bf055eceaacc3929181900390910190a150565b60005481565b60016020818152600092835260409283902080548184015460028084015460038501805489519881161561010002600019011692909204601f81018790048702880187019098528787529296919592949091908301828280156106065780601f106105db57610100808354040283529160200191610606565b820191906000526020600020905b8154815290600101906020018083116105e957829003601f168201915b5050505060048301805460408051602060026001851615610100026000190190941693909304601f81018490048402820184019092528181529495949350908301828280156106965780601f1061066b57610100808354040283529160200191610696565b820191906000526020600020905b81548152906001019060200180831161067957829003601f168201915b5050505050908060050154905086565b6000805460019081018083556040805160c0810182528281526020808201868152828401878152606084018a8152608085018a905260a08501899052958852868352939096208251815595519486019490945590516002850155905180519193926107199260038501929091019061086b565b506080820151805161073591600484019160209091019061086b565b5060a082015181600501559050507f840f52d4fb3e36963ceb39ebf7539b15567117cf8a64f636d7678e0794e4e0f860005460008085856000604051808781526020018681526020018581526020018060200180602001848152602001838103835286818151815260200191508051906020019080838360005b838110156107c75781810151838201526020016107af565b50505050905090810190601f1680156107f45780820380516001836020036101000a031916815260200191505b50838103825285518152855160209182019187019080838360005b8381101561082757818101518382015260200161080f565b50505050905090810190601f1680156108545780820380516001836020036101000a031916815260200191505b509850505050505050505060405180910390a15050565b828054600181600116156101000203166002900490600052602060002090601f016020900481019282601f106108ac57805160ff19168380011785556108d9565b828001600101855582156108d9579182015b828111156108d95782518255916020019190600101906108be565b506108e59291506108e9565b5090565b61090391905b808211156108e557600081556001016108ef565b9056fea165627a7a72305820647e5482c823650266362d7f2a6ab7ba3b5ee8d2e064c8c7b21deffcc2f94c3b00294174206f7572207363686f6f6c2c2077652061726520636f6e7374616e746c7920746f6c642061626f757420746865206163636f6d706c6973686d656e7473206f66204941534153206174686c657465732e2057652068617665207065702072616c6c6965732c20616e64204941534153206174686c657465732061726520676976656e2072656420626167732e20496e206f6e65206f662074686520686f75736520617373656d626c6965732c20616c6c206174686c6574657320776572652061736b656420746f207374616e642075702c20666f7220746865697220646966666572656e742073706f7274732e20496d6167696e6520776861742069662066656c74206c696b6520666f722074686f73652077686f206469646ee28099742074616b65207061727420696e206174686c65746963732c207768656e2074686579207765726520746865206f6e6c792070656f706c65207374616e64696e672075702e205468697320776f756c642062652066696e6520696620746865792077657265207265636f676e697a65642c20627574207175697465206672616e6b6c792c2074686579206172656ee28099742e2057652061726520636f6e7374616e746c792061736b656420746f20e2809c537570706f7274206f7572204561676c6573e2809d206174206174686c65746963206576656e74732c2062757420666f722043756c436f6e2c206e6f626f6479207265616c6c792063617265732e2054686973206973737565206973206675727468657220776f7273656e6564207769746820746865205363686f6c617273204c756e6368656f6e2e205468652047504120726571756972656d656e7420697320332e372c207768696368206973206c6f7720656e6f75676820666f722061206772656174206e756d626572206f662070656f706c6520746f207175616c69667920666f722069742e2042757420666f722074686f73652077686f206172656ee280997420617320676f6f642061636164656d6963616c6c792c207468657920776f756c64206665656c2065787472656d656c7920626164207768656e2068616c6620746865207363686f6f6c20676f657320746f207468652067796d206f6e65206c756e63682e20467572746865726d6f72652c2074686f73652077686f2068617665207665727920676f6f6420475041732c206c696b6520686176696e672061626f7665206120342e312c2063616ee2809974206665656c207265636f676e697a65642062656361757365207468657920617265206265696e67207265636f676e697a656420776974682068616c6620746865207363686f6f6c2c20e2809c64696c7574696e67e2809d207468656972207265636f676e6974696f6e2e48657265206973206120726561736f6e20666f722074686973206974656d2e48657265206973206120726561736f6e20666f722074686973206974656d2e48657265206973206120726561736f6e20666f722074686973206974656d2e48657265206973206120726561736f6e20666f722074686973206974656d2e48657265206973206120726561736f6e20666f722074686973206974656d2e",
  "source": "pragma solidity ^0.5.0;\r\n\r\ncontract TodoList{\r\n    int public itemCount = 0;\r\n\r\n    struct Item{\r\n        int id; \r\n        int numPos;\r\n        int numNeg;\r\n        string title;\r\n        string content;\r\n        int currentVote; //0 means not voted, -1 means downvote, 1 means upvote  \r\n    }\r\n    mapping(int => Item) public items;\r\n\r\n    event ItemCreated(\r\n        int id,\r\n        int numPos,\r\n        int numNeg,\r\n        string title,\r\n        string content,\r\n        int currentVote\r\n    );\r\n\r\n    event change(\r\n        int numPos,\r\n        int numNeg\r\n    );\r\n/*\r\n    event ItemUpvoted(\t\r\n        int id,\t\r\n        int currentVote\r\n    );\r\n\r\n    event ItemDownvoted(\t\r\n        int id,\t\r\n        int currentVote\r\n    );\r\n*/\r\n\r\n    constructor() public{\r\n        createItem(\"Should SAS renovate their library?\", \"Here is a reason for this item.Here is a reason for this item.Here is a reason for this item.Here is a reason for this item.Here is a reason for this item.\");\r\n        createItem(\"Should athletics be de-emphasised?\", \"At our school, we are constantly told about the accomplishments of IASAS athletes. We have pep rallies, and IASAS athletes are given red bags. In one of the house assemblies, all athletes were asked to stand up, for their different sports. Imagine what if felt like for those who didn’t take part in athletics, when they were the only people standing up. This would be fine if they were recognized, but quite frankly, they aren’t. We are constantly asked to “Support our Eagles” at athletic events, but for CulCon, nobody really cares. This issue is further worsened with the Scholars Luncheon. The GPA requirement is 3.7, which is low enough for a great number of people to qualify for it. But for those who aren’t as good academically, they would feel extremely bad when half the school goes to the gym one lunch. Furthermore, those who have very good GPAs, like having above a 4.1, can’t feel recognized because they are being recognized with half the school, “diluting” their recognition.\");\r\n    }\r\n\r\n    function createItem(string memory _title, string memory _content) public{\r\n        itemCount++;\r\n        items[itemCount] = Item(itemCount, 0,0,_title, _content, 0);\r\n        emit ItemCreated(itemCount,0,0,_title,_content,0);\r\n    }\r\n\r\n    function itemUpvoted(int id) public{\r\n        int currentVote = items[id].currentVote;\r\n        if(currentVote == 1){\r\n            items[id].currentVote == 0;\r\n            items[id].numPos -= 1;\r\n        }\r\n        else if(currentVote == 0){\r\n            items[id].currentVote = 1;\r\n            items[id].numPos += 1;\r\n        }else if(currentVote == -1){\r\n            items[id].currentVote = 1;\r\n            items[id].numPos++;\r\n            items[id].numNeg--;\r\n        }\r\n        emit change(items[id].numPos,items[id].numNeg);\r\n    }\r\n\r\n    function itemDownvoted(int id) public{\r\n        if(items[id].currentVote == 1){\r\n            items[id].currentVote == -1;\r\n            items[id].numPos--;\r\n            items[id].numNeg++;\r\n        }\r\n        else if(items[id].currentVote == 0){\r\n            items[id].currentVote = -1;\r\n            items[id].numNeg++;\r\n        }else if(items[id].currentVote == -1){\r\n            items[id].currentVote = 0;\r\n            items[id].numNeg--;\r\n        }\r\n        emit change(items[id].numPos,items[id].numNeg);\r\n    }\r\n\r\n}",
  "sourcePath": "C:/Users/polav/OneDrive/Desktop/Projects/blockchain/Catalyst/todo/contracts/TodoList.sol",
  "compiler": {
    "name": "solc",
    "version": "0.5.0+commit.1d4f565a.Emscripten.clang"
  },
  "schemaVersion": "3.0.1",
  "updatedAt": "2022-04-26T19:04:41.723Z",
  "devdoc": {
    "methods": {}
  },
  "userdoc": {
    "methods": {}
  }
}